{
  "address": "0x621683739862552eE4940243EED5F4f6a3e60C1c",
  "abi": [
    {
      "inputs": [
        {
          "internalType": "address",
          "name": "vfrCoordinator2",
          "type": "address"
        },
        {
          "internalType": "uint256",
          "name": "entranceFee",
          "type": "uint256"
        },
        {
          "internalType": "bytes32",
          "name": "gasLane",
          "type": "bytes32"
        },
        {
          "internalType": "uint256",
          "name": "subscriptionId",
          "type": "uint256"
        },
        {
          "internalType": "uint32",
          "name": "callbackGasLimit",
          "type": "uint32"
        },
        {
          "internalType": "enum Raffle.RaffleState",
          "name": "state",
          "type": "uint8"
        },
        {
          "internalType": "uint256",
          "name": "interval",
          "type": "uint256"
        }
      ],
      "stateMutability": "nonpayable",
      "type": "constructor"
    },
    {
      "inputs": [
        {
          "internalType": "address",
          "name": "have",
          "type": "address"
        },
        {
          "internalType": "address",
          "name": "want",
          "type": "address"
        }
      ],
      "name": "OnlyCoordinatorCanFulfill",
      "type": "error"
    },
    {
      "inputs": [
        {
          "internalType": "address",
          "name": "have",
          "type": "address"
        },
        {
          "internalType": "address",
          "name": "owner",
          "type": "address"
        },
        {
          "internalType": "address",
          "name": "coordinator",
          "type": "address"
        }
      ],
      "name": "OnlyOwnerOrCoordinator",
      "type": "error"
    },
    {
      "inputs": [],
      "name": "Raffle_Closed",
      "type": "error"
    },
    {
      "inputs": [],
      "name": "Raffle_NoNeededUpgrade",
      "type": "error"
    },
    {
      "inputs": [],
      "name": "Raffle_NotEnoughETH",
      "type": "error"
    },
    {
      "inputs": [],
      "name": "Raffle_TransferFail",
      "type": "error"
    },
    {
      "inputs": [],
      "name": "ZeroAddress",
      "type": "error"
    },
    {
      "anonymous": false,
      "inputs": [
        {
          "indexed": false,
          "internalType": "bool",
          "name": "Upkeep",
          "type": "bool"
        }
      ],
      "name": "CheckUpkeepEvent",
      "type": "event"
    },
    {
      "anonymous": false,
      "inputs": [
        {
          "indexed": false,
          "internalType": "address",
          "name": "vrfCoordinator",
          "type": "address"
        }
      ],
      "name": "CoordinatorSet",
      "type": "event"
    },
    {
      "anonymous": false,
      "inputs": [
        {
          "indexed": true,
          "internalType": "uint256",
          "name": "reuquestId",
          "type": "uint256"
        }
      ],
      "name": "FulfillRandomWords",
      "type": "event"
    },
    {
      "anonymous": false,
      "inputs": [
        {
          "indexed": true,
          "internalType": "address",
          "name": "from",
          "type": "address"
        },
        {
          "indexed": true,
          "internalType": "address",
          "name": "to",
          "type": "address"
        }
      ],
      "name": "OwnershipTransferRequested",
      "type": "event"
    },
    {
      "anonymous": false,
      "inputs": [
        {
          "indexed": true,
          "internalType": "address",
          "name": "from",
          "type": "address"
        },
        {
          "indexed": true,
          "internalType": "address",
          "name": "to",
          "type": "address"
        }
      ],
      "name": "OwnershipTransferred",
      "type": "event"
    },
    {
      "anonymous": false,
      "inputs": [
        {
          "indexed": true,
          "internalType": "address",
          "name": "player",
          "type": "address"
        }
      ],
      "name": "RaffleEnter",
      "type": "event"
    },
    {
      "anonymous": false,
      "inputs": [
        {
          "indexed": true,
          "internalType": "uint256",
          "name": "requestId",
          "type": "uint256"
        }
      ],
      "name": "RequestRaffleWinner",
      "type": "event"
    },
    {
      "anonymous": false,
      "inputs": [],
      "name": "StartFulfillRandomWords",
      "type": "event"
    },
    {
      "anonymous": false,
      "inputs": [
        {
          "indexed": true,
          "internalType": "address",
          "name": "winner",
          "type": "address"
        }
      ],
      "name": "WinnerChoose",
      "type": "event"
    },
    {
      "inputs": [],
      "name": "acceptOwnership",
      "outputs": [],
      "stateMutability": "nonpayable",
      "type": "function"
    },
    {
      "inputs": [
        {
          "internalType": "bytes",
          "name": "",
          "type": "bytes"
        }
      ],
      "name": "checkUpkeep",
      "outputs": [
        {
          "internalType": "bool",
          "name": "upkeepNeeded",
          "type": "bool"
        },
        {
          "internalType": "bytes",
          "name": "",
          "type": "bytes"
        }
      ],
      "stateMutability": "nonpayable",
      "type": "function"
    },
    {
      "inputs": [],
      "name": "enterRaffle",
      "outputs": [],
      "stateMutability": "payable",
      "type": "function"
    },
    {
      "inputs": [],
      "name": "getEntranceFee",
      "outputs": [
        {
          "internalType": "uint256",
          "name": "",
          "type": "uint256"
        }
      ],
      "stateMutability": "view",
      "type": "function"
    },
    {
      "inputs": [],
      "name": "getInterval",
      "outputs": [
        {
          "internalType": "uint256",
          "name": "",
          "type": "uint256"
        }
      ],
      "stateMutability": "view",
      "type": "function"
    },
    {
      "inputs": [],
      "name": "getLastTimeStamp",
      "outputs": [
        {
          "internalType": "uint256",
          "name": "",
          "type": "uint256"
        }
      ],
      "stateMutability": "view",
      "type": "function"
    },
    {
      "inputs": [
        {
          "internalType": "uint256",
          "name": "index",
          "type": "uint256"
        }
      ],
      "name": "getPlayer",
      "outputs": [
        {
          "internalType": "address",
          "name": "",
          "type": "address"
        }
      ],
      "stateMutability": "view",
      "type": "function"
    },
    {
      "inputs": [],
      "name": "getRaffleState",
      "outputs": [
        {
          "internalType": "enum Raffle.RaffleState",
          "name": "",
          "type": "uint8"
        }
      ],
      "stateMutability": "view",
      "type": "function"
    },
    {
      "inputs": [],
      "name": "getRecentWinner",
      "outputs": [
        {
          "internalType": "address",
          "name": "",
          "type": "address"
        }
      ],
      "stateMutability": "view",
      "type": "function"
    },
    {
      "inputs": [],
      "name": "owner",
      "outputs": [
        {
          "internalType": "address",
          "name": "",
          "type": "address"
        }
      ],
      "stateMutability": "view",
      "type": "function"
    },
    {
      "inputs": [
        {
          "internalType": "bytes",
          "name": "",
          "type": "bytes"
        }
      ],
      "name": "performUpkeep",
      "outputs": [],
      "stateMutability": "nonpayable",
      "type": "function"
    },
    {
      "inputs": [
        {
          "internalType": "uint256",
          "name": "requestId",
          "type": "uint256"
        },
        {
          "internalType": "uint256[]",
          "name": "randomWords",
          "type": "uint256[]"
        }
      ],
      "name": "rawFulfillRandomWords",
      "outputs": [],
      "stateMutability": "nonpayable",
      "type": "function"
    },
    {
      "inputs": [],
      "name": "s_vrfCoordinator",
      "outputs": [
        {
          "internalType": "contract IVRFCoordinatorV2Plus",
          "name": "",
          "type": "address"
        }
      ],
      "stateMutability": "view",
      "type": "function"
    },
    {
      "inputs": [
        {
          "internalType": "address",
          "name": "_vrfCoordinator",
          "type": "address"
        }
      ],
      "name": "setCoordinator",
      "outputs": [],
      "stateMutability": "nonpayable",
      "type": "function"
    },
    {
      "inputs": [
        {
          "internalType": "address",
          "name": "to",
          "type": "address"
        }
      ],
      "name": "transferOwnership",
      "outputs": [],
      "stateMutability": "nonpayable",
      "type": "function"
    }
  ],
  "transactionHash": "0x0e825c2bd4d4d61d3fa78bf641dcda59c817cc46f02b0be73bb45946c86daac9",
  "args": [
    "0x8103B0A8A00be2DDC778e6e7eaa21791Cd364625",
    "10000000000000000",
    "0x474e34a077df58807dbe9c96d3c009b23b3c6d0cce433e59bbf5b34f823bc56c",
    "64365438307174286687954472723470254802844915626198274951546571835152505330037",
    600000,
    0,
    30
  ],
  "numDeployments": 2,
  "solcInputHash": "b137db069db4550997a612e6ba29e890",
  "bytecode": "0x61014060405234801561001157600080fd5b5060405161294e38038061294e833981810160405281019061003391906104d8565b86338060008073ffffffffffffffffffffffffffffffffffffffff168273ffffffffffffffffffffffffffffffffffffffff16036100a6576040517f08c379a000000000000000000000000000000000000000000000000000000000815260040161009d906105d7565b60405180910390fd5b816000806101000a81548173ffffffffffffffffffffffffffffffffffffffff021916908373ffffffffffffffffffffffffffffffffffffffff160217905550600073ffffffffffffffffffffffffffffffffffffffff168173ffffffffffffffffffffffffffffffffffffffff161461012a576101298161027c60201b60201c565b5b505050600073ffffffffffffffffffffffffffffffffffffffff168173ffffffffffffffffffffffffffffffffffffffff1603610193576040517fd92e233d00000000000000000000000000000000000000000000000000000000815260040160405180910390fd5b80600260006101000a81548173ffffffffffffffffffffffffffffffffffffffff021916908373ffffffffffffffffffffffffffffffffffffffff160217905550508560c081815250508673ffffffffffffffffffffffffffffffffffffffff1660808173ffffffffffffffffffffffffffffffffffffffff16815250508460a081815250508360e081815250508263ffffffff166101008163ffffffff168152505081600260146101000a81548160ff0219169083600181111561025b5761025a6105f7565b5b02179055504260058190555080610120818152505050505050505050610692565b3373ffffffffffffffffffffffffffffffffffffffff168173ffffffffffffffffffffffffffffffffffffffff16036102ea576040517f08c379a00000000000000000000000000000000000000000000000000000000081526004016102e190610672565b60405180910390fd5b80600160006101000a81548173ffffffffffffffffffffffffffffffffffffffff021916908373ffffffffffffffffffffffffffffffffffffffff1602179055508073ffffffffffffffffffffffffffffffffffffffff1660008054906101000a900473ffffffffffffffffffffffffffffffffffffffff1673ffffffffffffffffffffffffffffffffffffffff167fed8889f560326eb138920d842192f0eb3dd22b4f139c87a2c57538e05bae127860405160405180910390a350565b600080fd5b600073ffffffffffffffffffffffffffffffffffffffff82169050919050565b60006103d8826103ad565b9050919050565b6103e8816103cd565b81146103f357600080fd5b50565b600081519050610405816103df565b92915050565b6000819050919050565b61041e8161040b565b811461042957600080fd5b50565b60008151905061043b81610415565b92915050565b6000819050919050565b61045481610441565b811461045f57600080fd5b50565b6000815190506104718161044b565b92915050565b600063ffffffff82169050919050565b61049081610477565b811461049b57600080fd5b50565b6000815190506104ad81610487565b92915050565b600281106104c057600080fd5b50565b6000815190506104d2816104b3565b92915050565b600080600080600080600060e0888a0312156104f7576104f66103a8565b5b60006105058a828b016103f6565b97505060206105168a828b0161042c565b96505060406105278a828b01610462565b95505060606105388a828b0161042c565b94505060806105498a828b0161049e565b93505060a061055a8a828b016104c3565b92505060c061056b8a828b0161042c565b91505092959891949750929550565b600082825260208201905092915050565b7f43616e6e6f7420736574206f776e657220746f207a65726f0000000000000000600082015250565b60006105c160188361057a565b91506105cc8261058b565b602082019050919050565b600060208201905081810360008301526105f0816105b4565b9050919050565b7f4e487b7100000000000000000000000000000000000000000000000000000000600052602160045260246000fd5b7f43616e6e6f74207472616e7366657220746f2073656c66000000000000000000600082015250565b600061065c60178361057a565b915061066782610626565b602082019050919050565b6000602082019050818103600083015261068b8161064f565b9050919050565b60805160a05160c05160e051610100516101205161225f6106ef600039600081816108e00152610d8d0152600061071b015260006106ea01526000818161035e01526104ce015260006106c40152600061067d015261225f6000f3fe6080604052600436106100e85760003560e01c806379ba50971161008a5780639eccacf6116100595780639eccacf61461029e578063c1c244e8146102c9578063e55ae4e8146102f4578063f2fde38b14610331576100e8565b806379ba5097146102085780638da5cb5b1461021f5780638ea981171461024a57806391ad27b414610273576100e8565b80632cfcc539116100c65780632cfcc5391461016c5780634585e33b14610176578063473f1ddc1461019f5780636e04ff0d146101ca576100e8565b806309bc33a7146100ed578063115cbaf5146101185780631fe543e314610143575b600080fd5b3480156100f957600080fd5b5061010261035a565b60405161010f919061162a565b60405180910390f35b34801561012457600080fd5b5061012d610382565b60405161013a91906116bc565b60405180910390f35b34801561014f57600080fd5b5061016a6004803603810190610165919061177c565b610399565b005b61017461045f565b005b34801561018257600080fd5b5061019d60048036038101906101989190611832565b6105ce565b005b3480156101ab57600080fd5b506101b4610873565b6040516101c191906118c0565b60405180910390f35b3480156101d657600080fd5b506101f160048036038101906101ec9190611a1c565b61089d565b6040516101ff929190611aff565b60405180910390f35b34801561021457600080fd5b5061021d6109ea565b005b34801561022b57600080fd5b50610234610b7f565b60405161024191906118c0565b60405180910390f35b34801561025657600080fd5b50610271600480360381019061026c9190611b5b565b610ba8565b005b34801561027f57600080fd5b50610288610d89565b604051610295919061162a565b60405180910390f35b3480156102aa57600080fd5b506102b3610db1565b6040516102c09190611be7565b60405180910390f35b3480156102d557600080fd5b506102de610dd7565b6040516102eb919061162a565b60405180910390f35b34801561030057600080fd5b5061031b60048036038101906103169190611c02565b610de1565b60405161032891906118c0565b60405180910390f35b34801561033d57600080fd5b5061035860048036038101906103539190611b5b565b610e29565b005b60007f0000000000000000000000000000000000000000000000000000000000000000905090565b6000600260149054906101000a900460ff16905090565b600260009054906101000a900473ffffffffffffffffffffffffffffffffffffffff1673ffffffffffffffffffffffffffffffffffffffff163373ffffffffffffffffffffffffffffffffffffffff161461044f5733600260009054906101000a900473ffffffffffffffffffffffffffffffffffffffff166040517f1cf993f4000000000000000000000000000000000000000000000000000000008152600401610446929190611c2f565b60405180910390fd5b61045a838383610e3d565b505050565b6000600181111561047357610472611645565b5b600260149054906101000a900460ff16600181111561049557610494611645565b5b146104cc576040517fd55ce1f200000000000000000000000000000000000000000000000000000000815260040160405180910390fd5b7f0000000000000000000000000000000000000000000000000000000000000000341015610526576040517f93e676b900000000000000000000000000000000000000000000000000000000815260040160405180910390fd5b6004339080600181540180825580915050600190039060005260206000200160009091909190916101000a81548173ffffffffffffffffffffffffffffffffffffffff021916908373ffffffffffffffffffffffffffffffffffffffff1602179055503373ffffffffffffffffffffffffffffffffffffffff167f0805e1d667bddb8a95f0f09880cf94f403fb596ce79928d9f29b74203ba284d460405160405180910390a2565b60006105e86040518060200160405280600081525061089d565b50905080610622576040517fa614b60000000000000000000000000000000000000000000000000000000000815260040160405180910390fd5b6001600260146101000a81548160ff0219169083600181111561064857610647611645565b5b02179055507fd027b133de4351ea12476df225442920431e76eb0a2d7a0fc1b2619176b85b2760405160405180910390a160007f000000000000000000000000000000000000000000000000000000000000000073ffffffffffffffffffffffffffffffffffffffff16639b1c385e6040518060c001604052807f000000000000000000000000000000000000000000000000000000000000000081526020017f00000000000000000000000000000000000000000000000000000000000000008152602001600361ffff1681526020017f000000000000000000000000000000000000000000000000000000000000000063ffffffff168152602001600161ffff1663ffffffff1681526020016107706040518060200160405280600015158152506110ef565b8152506040518263ffffffff1660e01b815260040161078f9190611d8f565b6020604051808303816000875af11580156107ae573d6000803e3d6000fd5b505050506040513d601f19601f820116820180604052508101906107d29190611dc6565b9050807f41a7c5307276c3ee1dd4b0850ff28b9666beaa3df758778d16591980b22e5b8460405160405180910390a26108406040518060400160405280600981526020017f526571756573744964000000000000000000000000000000000000000000000081525082611187565b807fde6349b018d6c03d837b67d9a198a6ba4842546f2295fe963fae141e5dbaef8160405160405180910390a250505050565b6000600360009054906101000a900473ffffffffffffffffffffffffffffffffffffffff16905090565b600060606000600260149054906101000a900460ff1660018111156108c5576108c4611645565b5b600060018111156108d9576108d8611645565b5b14905060007f00000000000000000000000000000000000000000000000000000000000000006005544261090d9190611e22565b1190506000806004805490501190508280156109265750815b801561092f5750805b94506109706040518060400160405280600c81526020017f75706b6565704e6565646564000000000000000000000000000000000000000081525086611223565b7fc598e020f09d7991af7a5627be109a3bfb84dcad4656afb823377ec3c8bc7f1a8560405161099f9190611e56565b60405180910390a1846040518060400160405280600381526020017f307830000000000000000000000000000000000000000000000000000000000081525094509450505050915091565b600160009054906101000a900473ffffffffffffffffffffffffffffffffffffffff1673ffffffffffffffffffffffffffffffffffffffff163373ffffffffffffffffffffffffffffffffffffffff1614610a7a576040517f08c379a0000000000000000000000000000000000000000000000000000000008152600401610a7190611ece565b60405180910390fd5b60008060009054906101000a900473ffffffffffffffffffffffffffffffffffffffff169050336000806101000a81548173ffffffffffffffffffffffffffffffffffffffff021916908373ffffffffffffffffffffffffffffffffffffffff1602179055506000600160006101000a81548173ffffffffffffffffffffffffffffffffffffffff021916908373ffffffffffffffffffffffffffffffffffffffff1602179055503373ffffffffffffffffffffffffffffffffffffffff168173ffffffffffffffffffffffffffffffffffffffff167f8be0079c531659141344cd1fd0a4f28419497f9722a3daafe3b4186f6b6457e060405160405180910390a350565b60008060009054906101000a900473ffffffffffffffffffffffffffffffffffffffff16905090565b610bb0610b7f565b73ffffffffffffffffffffffffffffffffffffffff163373ffffffffffffffffffffffffffffffffffffffff1614158015610c395750600260009054906101000a900473ffffffffffffffffffffffffffffffffffffffff1673ffffffffffffffffffffffffffffffffffffffff163373ffffffffffffffffffffffffffffffffffffffff1614155b15610ca85733610c47610b7f565b600260009054906101000a900473ffffffffffffffffffffffffffffffffffffffff166040517f061db9c1000000000000000000000000000000000000000000000000000000008152600401610c9f93929190611eee565b60405180910390fd5b600073ffffffffffffffffffffffffffffffffffffffff168173ffffffffffffffffffffffffffffffffffffffff1603610d0e576040517fd92e233d00000000000000000000000000000000000000000000000000000000815260040160405180910390fd5b80600260006101000a81548173ffffffffffffffffffffffffffffffffffffffff021916908373ffffffffffffffffffffffffffffffffffffffff1602179055507fd1a6a14209a385a964d036e404cb5cfb71f4000cdb03c9366292430787261be681604051610d7e91906118c0565b60405180910390a150565b60007f0000000000000000000000000000000000000000000000000000000000000000905090565b600260009054906101000a900473ffffffffffffffffffffffffffffffffffffffff1681565b6000600554905090565b600060048281548110610df757610df6611f25565b5b9060005260206000200160009054906101000a900473ffffffffffffffffffffffffffffffffffffffff169050919050565b610e316112bf565b610e3a8161134f565b50565b600060048054905083836000818110610e5957610e58611f25565b5b90506020020135610e6a9190611f83565b9050610eab6040518060400160405280600d81526020017f696e6465784f6657696e6e65720000000000000000000000000000000000000081525082611187565b600060048281548110610ec157610ec0611f25565b5b9060005260206000200160009054906101000a900473ffffffffffffffffffffffffffffffffffffffff169050610f2e6040518060400160405280600c81526020017f726563656e7457696e6e65720000000000000000000000000000000000000000815250824761147b565b80600360006101000a81548173ffffffffffffffffffffffffffffffffffffffff021916908373ffffffffffffffffffffffffffffffffffffffff16021790555060008173ffffffffffffffffffffffffffffffffffffffff1647604051610f9590611fe5565b60006040518083038185875af1925050503d8060008114610fd2576040519150601f19603f3d011682016040523d82523d6000602084013e610fd7565b606091505b505090506000600260146101000a81548160ff0219169083600181111561100157611000611645565b5b021790555042600581905550600067ffffffffffffffff811115611028576110276118f1565b5b6040519080825280602002602001820160405280156110565781602001602082028036833780820191505090505b506004908051906020019061106c929190611560565b50806110a4576040517f4d3c562d00000000000000000000000000000000000000000000000000000000815260040160405180910390fd5b8173ffffffffffffffffffffffffffffffffffffffff167f4cfe45bdf5e583efcc070658cb5f4a00b40519abe09a10473a8ae88ea2aef07c60405160405180910390a2505050505050565b60607f92fd13387c7fe7befbc38d303d6468778fb9731bc4583f17d92989c6fcfdeaaa826040516024016111239190612025565b604051602081830303815290604052907bffffffffffffffffffffffffffffffffffffffffffffffffffffffff19166020820180517bffffffffffffffffffffffffffffffffffffffffffffffffffffffff83818316178352505050509050919050565b61121f828260405160240161119d929190612084565b6040516020818303038152906040527fb60e72cc000000000000000000000000000000000000000000000000000000007bffffffffffffffffffffffffffffffffffffffffffffffffffffffff19166020820180517bffffffffffffffffffffffffffffffffffffffffffffffffffffffff838183161783525050505061151a565b5050565b6112bb82826040516024016112399291906120b4565b6040516020818303038152906040527fc3b55635000000000000000000000000000000000000000000000000000000007bffffffffffffffffffffffffffffffffffffffffffffffffffffffff19166020820180517bffffffffffffffffffffffffffffffffffffffffffffffffffffffff838183161783525050505061151a565b5050565b60008054906101000a900473ffffffffffffffffffffffffffffffffffffffff1673ffffffffffffffffffffffffffffffffffffffff163373ffffffffffffffffffffffffffffffffffffffff161461134d576040517f08c379a000000000000000000000000000000000000000000000000000000000815260040161134490612130565b60405180910390fd5b565b3373ffffffffffffffffffffffffffffffffffffffff168173ffffffffffffffffffffffffffffffffffffffff16036113bd576040517f08c379a00000000000000000000000000000000000000000000000000000000081526004016113b49061219c565b60405180910390fd5b80600160006101000a81548173ffffffffffffffffffffffffffffffffffffffff021916908373ffffffffffffffffffffffffffffffffffffffff1602179055508073ffffffffffffffffffffffffffffffffffffffff1660008054906101000a900473ffffffffffffffffffffffffffffffffffffffff1673ffffffffffffffffffffffffffffffffffffffff167fed8889f560326eb138920d842192f0eb3dd22b4f139c87a2c57538e05bae127860405160405180910390a350565b611515838383604051602401611493939291906121bc565b6040516020818303038152906040527f0d26b925000000000000000000000000000000000000000000000000000000007bffffffffffffffffffffffffffffffffffffffffffffffffffffffff19166020820180517bffffffffffffffffffffffffffffffffffffffffffffffffffffffff838183161783525050505061151a565b505050565b61153181611529611534611555565b63ffffffff16565b50565b60006a636f6e736f6c652e6c6f679050600080835160208501845afa505050565b6115ea819050919050565b8280548282559060005260206000209081019282156115d9579160200282015b828111156115d85782518260006101000a81548173ffffffffffffffffffffffffffffffffffffffff021916908373ffffffffffffffffffffffffffffffffffffffff16021790555091602001919060010190611580565b5b5090506115e691906115f4565b5090565b6115f26121fa565b565b5b8082111561160d5760008160009055506001016115f5565b5090565b6000819050919050565b61162481611611565b82525050565b600060208201905061163f600083018461161b565b92915050565b7f4e487b7100000000000000000000000000000000000000000000000000000000600052602160045260246000fd5b6002811061168557611684611645565b5b50565b600081905061169682611674565b919050565b60006116a682611688565b9050919050565b6116b68161169b565b82525050565b60006020820190506116d160008301846116ad565b92915050565b6000604051905090565b600080fd5b600080fd5b6116f481611611565b81146116ff57600080fd5b50565b600081359050611711816116eb565b92915050565b600080fd5b600080fd5b600080fd5b60008083601f84011261173c5761173b611717565b5b8235905067ffffffffffffffff8111156117595761175861171c565b5b60208301915083602082028301111561177557611774611721565b5b9250929050565b600080600060408486031215611795576117946116e1565b5b60006117a386828701611702565b935050602084013567ffffffffffffffff8111156117c4576117c36116e6565b5b6117d086828701611726565b92509250509250925092565b60008083601f8401126117f2576117f1611717565b5b8235905067ffffffffffffffff81111561180f5761180e61171c565b5b60208301915083600182028301111561182b5761182a611721565b5b9250929050565b60008060208385031215611849576118486116e1565b5b600083013567ffffffffffffffff811115611867576118666116e6565b5b611873858286016117dc565b92509250509250929050565b600073ffffffffffffffffffffffffffffffffffffffff82169050919050565b60006118aa8261187f565b9050919050565b6118ba8161189f565b82525050565b60006020820190506118d560008301846118b1565b92915050565b600080fd5b6000601f19601f8301169050919050565b7f4e487b7100000000000000000000000000000000000000000000000000000000600052604160045260246000fd5b611929826118e0565b810181811067ffffffffffffffff82111715611948576119476118f1565b5b80604052505050565b600061195b6116d7565b90506119678282611920565b919050565b600067ffffffffffffffff821115611987576119866118f1565b5b611990826118e0565b9050602081019050919050565b82818337600083830152505050565b60006119bf6119ba8461196c565b611951565b9050828152602081018484840111156119db576119da6118db565b5b6119e684828561199d565b509392505050565b600082601f830112611a0357611a02611717565b5b8135611a138482602086016119ac565b91505092915050565b600060208284031215611a3257611a316116e1565b5b600082013567ffffffffffffffff811115611a5057611a4f6116e6565b5b611a5c848285016119ee565b91505092915050565b60008115159050919050565b611a7a81611a65565b82525050565b600081519050919050565b600082825260208201905092915050565b60005b83811015611aba578082015181840152602081019050611a9f565b60008484015250505050565b6000611ad182611a80565b611adb8185611a8b565b9350611aeb818560208601611a9c565b611af4816118e0565b840191505092915050565b6000604082019050611b146000830185611a71565b8181036020830152611b268184611ac6565b90509392505050565b611b388161189f565b8114611b4357600080fd5b50565b600081359050611b5581611b2f565b92915050565b600060208284031215611b7157611b706116e1565b5b6000611b7f84828501611b46565b91505092915050565b6000819050919050565b6000611bad611ba8611ba38461187f565b611b88565b61187f565b9050919050565b6000611bbf82611b92565b9050919050565b6000611bd182611bb4565b9050919050565b611be181611bc6565b82525050565b6000602082019050611bfc6000830184611bd8565b92915050565b600060208284031215611c1857611c176116e1565b5b6000611c2684828501611702565b91505092915050565b6000604082019050611c4460008301856118b1565b611c5160208301846118b1565b9392505050565b6000819050919050565b611c6b81611c58565b82525050565b611c7a81611611565b82525050565b600061ffff82169050919050565b611c9781611c80565b82525050565b600063ffffffff82169050919050565b611cb681611c9d565b82525050565b600082825260208201905092915050565b6000611cd882611a80565b611ce28185611cbc565b9350611cf2818560208601611a9c565b611cfb816118e0565b840191505092915050565b600060c083016000830151611d1e6000860182611c62565b506020830151611d316020860182611c71565b506040830151611d446040860182611c8e565b506060830151611d576060860182611cad565b506080830151611d6a6080860182611cad565b5060a083015184820360a0860152611d828282611ccd565b9150508091505092915050565b60006020820190508181036000830152611da98184611d06565b905092915050565b600081519050611dc0816116eb565b92915050565b600060208284031215611ddc57611ddb6116e1565b5b6000611dea84828501611db1565b91505092915050565b7f4e487b7100000000000000000000000000000000000000000000000000000000600052601160045260246000fd5b6000611e2d82611611565b9150611e3883611611565b9250828203905081811115611e5057611e4f611df3565b5b92915050565b6000602082019050611e6b6000830184611a71565b92915050565b600082825260208201905092915050565b7f4d7573742062652070726f706f736564206f776e657200000000000000000000600082015250565b6000611eb8601683611e71565b9150611ec382611e82565b602082019050919050565b60006020820190508181036000830152611ee781611eab565b9050919050565b6000606082019050611f0360008301866118b1565b611f1060208301856118b1565b611f1d60408301846118b1565b949350505050565b7f4e487b7100000000000000000000000000000000000000000000000000000000600052603260045260246000fd5b7f4e487b7100000000000000000000000000000000000000000000000000000000600052601260045260246000fd5b6000611f8e82611611565b9150611f9983611611565b925082611fa957611fa8611f54565b5b828206905092915050565b600081905092915050565b50565b6000611fcf600083611fb4565b9150611fda82611fbf565b600082019050919050565b6000611ff082611fc2565b9150819050919050565b61200381611a65565b82525050565b60208201600082015161201f6000850182611ffa565b50505050565b600060208201905061203a6000830184612009565b92915050565b600081519050919050565b600061205682612040565b6120608185611e71565b9350612070818560208601611a9c565b612079816118e0565b840191505092915050565b6000604082019050818103600083015261209e818561204b565b90506120ad602083018461161b565b9392505050565b600060408201905081810360008301526120ce818561204b565b90506120dd6020830184611a71565b9392505050565b7f4f6e6c792063616c6c61626c65206279206f776e657200000000000000000000600082015250565b600061211a601683611e71565b9150612125826120e4565b602082019050919050565b600060208201905081810360008301526121498161210d565b9050919050565b7f43616e6e6f74207472616e7366657220746f2073656c66000000000000000000600082015250565b6000612186601783611e71565b915061219182612150565b602082019050919050565b600060208201905081810360008301526121b581612179565b9050919050565b600060608201905081810360008301526121d6818661204b565b90506121e560208301856118b1565b6121f2604083018461161b565b949350505050565b7f4e487b7100000000000000000000000000000000000000000000000000000000600052605160045260246000fdfea2646970667358221220d3544e9d220a546d95162affdbc418700e05d27351e0078386188d58e2205fda64736f6c634300081b0033",
  "devdoc": {
    "kind": "dev",
    "methods": {},
    "version": 1
  },
  "userdoc": {
    "kind": "user",
    "methods": {
      "acceptOwnership()": {
        "notice": "Allows an ownership transfer to be completed by the recipient."
      },
      "owner()": {
        "notice": "Get the current owner"
      },
      "setCoordinator(address)": {
        "notice": "Sets the VRF Coordinator addressThis method should only be callable by the coordinator or contract owner"
      },
      "transferOwnership(address)": {
        "notice": "Allows an owner to begin transferring ownership to a new address."
      }
    },
    "version": 1
  },
  "storageLayout": {
    "storage": [
      {
        "astId": 48,
        "contract": "contracts/Raffle.sol:Raffle",
        "label": "s_owner",
        "offset": 0,
        "slot": "0",
        "type": "t_address"
      },
      {
        "astId": 50,
        "contract": "contracts/Raffle.sol:Raffle",
        "label": "s_pendingOwner",
        "offset": 0,
        "slot": "1",
        "type": "t_address"
      },
      {
        "astId": 2389,
        "contract": "contracts/Raffle.sol:Raffle",
        "label": "s_vrfCoordinator",
        "offset": 0,
        "slot": "2",
        "type": "t_contract(IVRFCoordinatorV2Plus)2538"
      },
      {
        "astId": 4674,
        "contract": "contracts/Raffle.sol:Raffle",
        "label": "s_state",
        "offset": 20,
        "slot": "2",
        "type": "t_enum(RaffleState)4668"
      },
      {
        "astId": 4676,
        "contract": "contracts/Raffle.sol:Raffle",
        "label": "s_recentWinner",
        "offset": 0,
        "slot": "3",
        "type": "t_address"
      },
      {
        "astId": 4679,
        "contract": "contracts/Raffle.sol:Raffle",
        "label": "s_players",
        "offset": 0,
        "slot": "4",
        "type": "t_array(t_address_payable)dyn_storage"
      },
      {
        "astId": 4695,
        "contract": "contracts/Raffle.sol:Raffle",
        "label": "s_lastTimeStamp",
        "offset": 0,
        "slot": "5",
        "type": "t_uint256"
      }
    ],
    "types": {
      "t_address": {
        "encoding": "inplace",
        "label": "address",
        "numberOfBytes": "20"
      },
      "t_address_payable": {
        "encoding": "inplace",
        "label": "address payable",
        "numberOfBytes": "20"
      },
      "t_array(t_address_payable)dyn_storage": {
        "base": "t_address_payable",
        "encoding": "dynamic_array",
        "label": "address payable[]",
        "numberOfBytes": "32"
      },
      "t_contract(IVRFCoordinatorV2Plus)2538": {
        "encoding": "inplace",
        "label": "contract IVRFCoordinatorV2Plus",
        "numberOfBytes": "20"
      },
      "t_enum(RaffleState)4668": {
        "encoding": "inplace",
        "label": "enum Raffle.RaffleState",
        "numberOfBytes": "1"
      },
      "t_uint256": {
        "encoding": "inplace",
        "label": "uint256",
        "numberOfBytes": "32"
      }
    }
  }
}